#
# This firmware image was provided by Martin Diehl <lists@mdiehl.de>, and
# works on original EZ-USB chips (Anchorchips an21xx, Cypress FX).  It
# activates endpoints EP2-IN and EP2-OUT to source (IN) and sink (OUT)
# bulk/interrupt traffic, which is enough to test most of the basic I/O
# machinery for a Linux-USB host, except fault handling/recovery.
#
# $Id: ep2_inout.ihx,v 1.1 2002/10/07 20:29:47 dbrownell Exp $
#
:0300000002029762
:03004300020100B7
:0301280002025977
:03012C0002027953
:20020000E4F5A8F5B8F591F5D8F5E8F5F8F587F586C2D3C2D4E58E54F8F58E907FD6E05416
:20022000FDF0907FAF7411F022E4907FDEF0907FDFF0907FE0F0907FE1F0907FB1F0907F5F
:20024000DD7409F07405907FDEF0907FDFF07404907FACF0907FADF022C0D0C0E0C082C0FD
:20026000835391EF907FA97404F0907FB97440F0D083D082D0E0D0D032C0D0C0E0C082C043
:20028000835391EF907FAA7404F0907FC9F0D083D082D0E0D0D032C2AF7581BF120200D2EC
:2002A000AF120229907FC8E020E106907FC9F080F3907FB8E020E112907E00E47A40F0A360
:0E02C000DAFC907FB97440F080E7D2E880FE4F
:00000001FF
